{
  "transactions": [
    {
      "hash": "0x288ea41788bbddbc026bfeae798a78b4ea1d441a78edccad6733aa1a8f982584",
      "transactionType": "CALL",
      "contractName": null,
      "contractAddress": "0xf2cf08c927b45f766ee82cafef29101255048a44",
      "function": "mintNFT(string)",
      "arguments": [
        "ipfs://QmYf52HhUzP3j8fG2QXwAuuVE2MWqyEWzrVsdqn1ZSwXwV/?filename=Tanjiro&Nezuko_Demon Slayer.jpeg"
      ],
      "transaction": {
        "from": "0x6768e771d464b4010cd32a802463c3ee2baeff16",
        "to": "0xf2cf08c927b45f766ee82cafef29101255048a44",
        "gas": "0x34d6d",
        "value": "0x0",
        "input": "0xfb37e88300000000000000000000000000000000000000000000000000000000000000200000000000000000000000000000000000000000000000000000000000000060697066733a2f2f516d596635324868557a50336a386647325158774175755645324d57717945577a72567364716e315a53775877562f3f66696c656e616d653d54616e6a69726f264e657a756b6f5f44656d6f6e20536c617965722e6a706567",
        "nonce": "0x1c",
        "chainId": "0xaa36a7"
      },
      "additionalContracts": [],
      "isFixedGasLimit": false
    }
  ],
  "receipts": [
    {
      "status": "0x1",
      "cumulativeGasUsed": "0xa23b16",
      "logs": [
        {
          "address": "0xf2cf08c927b45f766ee82cafef29101255048a44",
          "topics": [
            "0xddf252ad1be2c89b69c2b068fc378daa952ba7f163c4a11628f55a4df523b3ef",
            "0x0000000000000000000000000000000000000000000000000000000000000000",
            "0x0000000000000000000000006768e771d464b4010cd32a802463c3ee2baeff16",
            "0x0000000000000000000000000000000000000000000000000000000000000001"
          ],
          "data": "0x",
          "blockHash": "0xfa53be880d34e269c751049544f94290908a096ce986e890c2cad9778a90bb55",
          "blockNumber": "0x7172d5",
          "transactionHash": "0x288ea41788bbddbc026bfeae798a78b4ea1d441a78edccad6733aa1a8f982584",
          "transactionIndex": "0x44",
          "logIndex": "0x9c",
          "removed": false
        }
      ],
      "logsBloom": "0x00000000000000000000000000000000000000000000000000000000000000000000000000000000000000000000000000000000000000000000000000040000000000002000000008000008000000000000000000040000000000000000000000000000020000000000000000000800000000000000000000000010000000000000400000000000000000000000000000000000000000000000000000000000000000000000000000000000000000000000000000000000000000000100000000000002000004000000000000000000000000000000000000000000000060000000000000000000000100000000000000000000000000000000000000000000",
      "type": "0x2",
      "transactionHash": "0x288ea41788bbddbc026bfeae798a78b4ea1d441a78edccad6733aa1a8f982584",
      "transactionIndex": "0x44",
      "blockHash": "0xfa53be880d34e269c751049544f94290908a096ce986e890c2cad9778a90bb55",
      "blockNumber": "0x7172d5",
      "gasUsed": "0x24212",
      "effectiveGasPrice": "0x2080b55c1",
      "from": "0x6768e771d464b4010cd32a802463c3ee2baeff16",
      "to": "0xf2cf08c927b45f766ee82cafef29101255048a44",
      "contractAddress": null
    }
  ],
  "libraries": [],
  "pending": [],
  "returns": {},
  "timestamp": 1736190384,
  "chain": 11155111,
  "commit": "bf2aebe"
}