{
  "transactions": [
    {
      "hash": "0x8b7bb7494033c6061b95b60357a5bd11c26bf85d2ba299147895b3b985030320",
      "transactionType": "CALL",
      "contractName": null,
      "contractAddress": "0xf2cf08c927b45f766ee82cafef29101255048a44",
      "function": "mintNFT(string)",
      "arguments": [
        "ipfs://bafybeig37ioir76s7mg5oobetncojcm3c3hxasyd4rvid4jqhy4gkaheg4/?filename=0-PUG.json"
      ],
      "transaction": {
        "from": "0x6768e771d464b4010cd32a802463c3ee2baeff16",
        "to": "0xf2cf08c927b45f766ee82cafef29101255048a44",
        "gas": "0x31dac",
        "value": "0x0",
        "input": "0xfb37e88300000000000000000000000000000000000000000000000000000000000000200000000000000000000000000000000000000000000000000000000000000057697066733a2f2f62616679626569673337696f6972373673376d67356f6f6265746e636f6a636d3363336878617379643472766964346a71687934676b61686567342f3f66696c656e616d653d302d5055472e6a736f6e000000000000000000",
        "nonce": "0x1d",
        "chainId": "0xaa36a7"
      },
      "additionalContracts": [],
      "isFixedGasLimit": false
    }
  ],
  "receipts": [
    {
      "status": "0x1",
      "cumulativeGasUsed": "0x81a8d8",
      "logs": [
        {
          "address": "0xf2cf08c927b45f766ee82cafef29101255048a44",
          "topics": [
            "0xddf252ad1be2c89b69c2b068fc378daa952ba7f163c4a11628f55a4df523b3ef",
            "0x0000000000000000000000000000000000000000000000000000000000000000",
            "0x0000000000000000000000006768e771d464b4010cd32a802463c3ee2baeff16",
            "0x0000000000000000000000000000000000000000000000000000000000000002"
          ],
          "data": "0x",
          "blockHash": "0xf0c5a14a7c6e9e31ae8a8f285adf1fe6cb36fe42f53bd4f40844a9c6018d6d88",
          "blockNumber": "0x717308",
          "transactionHash": "0x8b7bb7494033c6061b95b60357a5bd11c26bf85d2ba299147895b3b985030320",
          "transactionIndex": "0x45",
          "logIndex": "0x87",
          "removed": false
        }
      ],
      "logsBloom": "0x04000000000000000000000000000000000000000000000000000000000000000000000000000000000000000000000000000000000000000000000000000000000000002000000008000008000000000000000000000000000000000000000000000000020000000000000000000800000000000000000000000010000000000000400000000000000000000000000000000000000000000000000000000000000000000000000000000100000000000000000000000000000000000100000000000002000004000000000000000000000000000000000000000000000020000000000000000000000100000000000000000000008000000000000000000000",
      "type": "0x2",
      "transactionHash": "0x8b7bb7494033c6061b95b60357a5bd11c26bf85d2ba299147895b3b985030320",
      "transactionIndex": "0x45",
      "blockHash": "0xf0c5a14a7c6e9e31ae8a8f285adf1fe6cb36fe42f53bd4f40844a9c6018d6d88",
      "blockNumber": "0x717308",
      "gasUsed": "0x24180",
      "effectiveGasPrice": "0x208eb1d40",
      "from": "0x6768e771d464b4010cd32a802463c3ee2baeff16",
      "to": "0xf2cf08c927b45f766ee82cafef29101255048a44",
      "contractAddress": null
    }
  ],
  "libraries": [],
  "pending": [],
  "returns": {},
  "timestamp": 1736190997,
  "chain": 11155111,
  "commit": "bf2aebe"
}