{
  "transactions": [
    {
      "hash": "0xb3293e0fdbe76481e7fd6a7e3702dbe739b945df514b8d63ada8ac0dcc4465fb",
      "transactionType": "CALL",
      "contractName": null,
      "contractAddress": "0xf2cf08c927b45f766ee82cafef29101255048a44",
      "function": "mintNFT(string)",
      "arguments": [
        "https://ipfs.io/ipfs/bafkreiapcq3jryfjywv27lydzpcdwuqhoskjzjcdgxgd3he5axb7d252bi"
      ],
      "transaction": {
        "from": "0x6768e771d464b4010cd32a802463c3ee2baeff16",
        "to": "0xf2cf08c927b45f766ee82cafef29101255048a44",
        "gas": "0x31d37",
        "value": "0x0",
        "input": "0xfb37e8830000000000000000000000000000000000000000000000000000000000000020000000000000000000000000000000000000000000000000000000000000005068747470733a2f2f697066732e696f2f697066732f6261666b72656961706371336a7279666a79777632376c79647a706364777571686f736b6a7a6a636467786764336865356178623764323532626900000000000000000000000000000000",
        "nonce": "0x1e",
        "chainId": "0xaa36a7"
      },
      "additionalContracts": [],
      "isFixedGasLimit": false
    }
  ],
  "receipts": [
    {
      "status": "0x1",
      "cumulativeGasUsed": "0xc757ad",
      "logs": [
        {
          "address": "0xf2cf08c927b45f766ee82cafef29101255048a44",
          "topics": [
            "0xddf252ad1be2c89b69c2b068fc378daa952ba7f163c4a11628f55a4df523b3ef",
            "0x0000000000000000000000000000000000000000000000000000000000000000",
            "0x0000000000000000000000006768e771d464b4010cd32a802463c3ee2baeff16",
            "0x0000000000000000000000000000000000000000000000000000000000000003"
          ],
          "data": "0x",
          "blockHash": "0x3c973024277541ec62c41cb5b1dbca981f80443882bd8f00fb767484b2f33299",
          "blockNumber": "0x71748a",
          "transactionHash": "0xb3293e0fdbe76481e7fd6a7e3702dbe739b945df514b8d63ada8ac0dcc4465fb",
          "transactionIndex": "0x64",
          "logIndex": "0xbd",
          "removed": false
        }
      ],
      "logsBloom": "0x00000000000000000000000000000000000000000000000000000000000000000000000000000000000000000000000000000000020000000000000000000000000000002000000008000008000000000000000000000000000000000000000000000000020000000000000000000800000000000000000000000010000000000000400000000000000000000000000000000000000000000000000000000000000000000000000000000000000000000000000000800000000000000100400000000002000004000000000000000000000000000000000000000000000020000000000000000000000100000000000000000000000000000000000000000000",
      "type": "0x2",
      "transactionHash": "0xb3293e0fdbe76481e7fd6a7e3702dbe739b945df514b8d63ada8ac0dcc4465fb",
      "transactionIndex": "0x64",
      "blockHash": "0x3c973024277541ec62c41cb5b1dbca981f80443882bd8f00fb767484b2f33299",
      "blockNumber": "0x71748a",
      "gasUsed": "0x2412c",
      "effectiveGasPrice": "0x1717cc2fd",
      "from": "0x6768e771d464b4010cd32a802463c3ee2baeff16",
      "to": "0xf2cf08c927b45f766ee82cafef29101255048a44",
      "contractAddress": null
    }
  ],
  "libraries": [],
  "pending": [],
  "returns": {},
  "timestamp": 1736195823,
  "chain": 11155111,
  "commit": "33262af"
}