{
  "transactions": [
    {
      "hash": "0xee396c2171f2248c824cdeb1d6aaa98f7dcca39511fa2502527156d807c47ac6",
      "transactionType": "CALL",
      "contractName": null,
      "contractAddress": "0xf2cf08c927b45f766ee82cafef29101255048a44",
      "function": "mintNFT(string)",
      "arguments": [
        "ipfs://QmYf52HhUzP3j8fG2QXwAuuVE2MWqyEWzrVsdqn1ZSwXwV"
      ],
      "transaction": {
        "from": "0x6768e771d464b4010cd32a802463c3ee2baeff16",
        "to": "0xf2cf08c927b45f766ee82cafef29101255048a44",
        "gas": "0x38e23",
        "value": "0x0",
        "input": "0xfb37e88300000000000000000000000000000000000000000000000000000000000000200000000000000000000000000000000000000000000000000000000000000035697066733a2f2f516d596635324868557a50336a386647325158774175755645324d57717945577a72567364716e315a53775877560000000000000000000000",
        "nonce": "0x1b",
        "chainId": "0xaa36a7"
      },
      "additionalContracts": [],
      "isFixedGasLimit": false
    }
  ],
  "receipts": [
    {
      "status": "0x1",
      "cumulativeGasUsed": "0x14d5e18",
      "logs": [
        {
          "address": "0xf2cf08c927b45f766ee82cafef29101255048a44",
          "topics": [
            "0xddf252ad1be2c89b69c2b068fc378daa952ba7f163c4a11628f55a4df523b3ef",
            "0x0000000000000000000000000000000000000000000000000000000000000000",
            "0x0000000000000000000000006768e771d464b4010cd32a802463c3ee2baeff16",
            "0x0000000000000000000000000000000000000000000000000000000000000000"
          ],
          "data": "0x",
          "blockHash": "0x887ad736887c0f9c1063ff89a5525697a8d5914cee5655985cced8f834535b21",
          "blockNumber": "0x71729c",
          "transactionHash": "0xee396c2171f2248c824cdeb1d6aaa98f7dcca39511fa2502527156d807c47ac6",
          "transactionIndex": "0xa2",
          "logIndex": "0x154",
          "removed": false
        }
      ],
      "logsBloom": "0x00000000000000000000000000000000000000000000000000000000000000000000000000000000000000000000000000000000000000000000000000000000000000002000000008000008000000000000000000000000000000000000000000000000020000000000000000000800000000000000000000000010000000000000400000000000000000000000000000000000000000000000000000000000000000000000000000000000000000000000000000000000000000000100000000000002000004000000000000000000000000000000000000000000000020000000000000000000000100000000000000000000000000000000000000000000",
      "type": "0x2",
      "transactionHash": "0xee396c2171f2248c824cdeb1d6aaa98f7dcca39511fa2502527156d807c47ac6",
      "transactionIndex": "0xa2",
      "blockHash": "0x887ad736887c0f9c1063ff89a5525697a8d5914cee5655985cced8f834535b21",
      "blockNumber": "0x71729c",
      "gasUsed": "0x26e51",
      "effectiveGasPrice": "0x1c6e92afe",
      "from": "0x6768e771d464b4010cd32a802463c3ee2baeff16",
      "to": "0xf2cf08c927b45f766ee82cafef29101255048a44",
      "contractAddress": null
    }
  ],
  "libraries": [],
  "pending": [],
  "returns": {},
  "timestamp": 1736189691,
  "chain": 11155111,
  "commit": "bf2aebe"
}